{
  "_format": "hh-sol-artifact-1",
  "contractName": "CleanMileBadge",
  "sourceName": "contracts/CleanMileBadge.sol",
  "abi": [
    {
      "inputs": [],
      "stateMutability": "nonpayable",
      "type": "constructor"
    },
    {
      "inputs": [],
      "name": "InsufficientBalance",
      "type": "error"
    },
    {
      "inputs": [
        {
          "internalType": "address",
          "name": "to",
          "type": "address"
        }
      ],
      "name": "InvalidRecipient",
      "type": "error"
    },
    {
      "inputs": [
        {
          "internalType": "address",
          "name": "_sender",
          "type": "address"
        }
      ],
      "name": "NoAuthority",
      "type": "error"
    },
    {
      "inputs": [],
      "name": "NoRecipients",
      "type": "error"
    },
    {
      "inputs": [],
      "name": "SelfApprove",
      "type": "error"
    },
    {
      "inputs": [],
      "name": "ZeroAmount",
      "type": "error"
    },
    {
      "anonymous": false,
      "inputs": [
        {
          "indexed": true,
          "internalType": "address",
          "name": "account",
          "type": "address"
        },
        {
          "indexed": true,
          "internalType": "address",
          "name": "operator",
          "type": "address"
        },
        {
          "indexed": false,
          "internalType": "bool",
          "name": "approved",
          "type": "bool"
        }
      ],
      "name": "ApprovalForAll",
      "type": "event"
    },
    {
      "anonymous": false,
      "inputs": [
        {
          "indexed": true,
          "internalType": "address",
          "name": "account",
          "type": "address"
        },
        {
          "indexed": true,
          "internalType": "uint256",
          "name": "tokenId",
          "type": "uint256"
        },
        {
          "indexed": false,
          "internalType": "bool",
          "name": "approved",
          "type": "bool"
        }
      ],
      "name": "ApprovalForToken",
      "type": "event"
    },
    {
      "anonymous": false,
      "inputs": [
        {
          "indexed": true,
          "internalType": "address",
          "name": "sender",
          "type": "address"
        },
        {
          "indexed": false,
          "internalType": "address",
          "name": "account",
          "type": "address"
        },
        {
          "indexed": false,
          "internalType": "enum ICleanMileBadge.BadgeType",
          "name": "badgeType",
          "type": "uint8"
        },
        {
          "indexed": false,
          "internalType": "uint256",
          "name": "amount",
          "type": "uint256"
        },
        {
          "indexed": false,
          "internalType": "string",
          "name": "_uri",
          "type": "string"
        }
      ],
      "name": "MintBadge",
      "type": "event"
    },
    {
      "anonymous": false,
      "inputs": [
        {
          "indexed": true,
          "internalType": "address",
          "name": "previousOwner",
          "type": "address"
        },
        {
          "indexed": true,
          "internalType": "address",
          "name": "newOwner",
          "type": "address"
        }
      ],
      "name": "OwnershipTransferred",
      "type": "event"
    },
    {
      "anonymous": false,
      "inputs": [
        {
          "indexed": true,
          "internalType": "address",
          "name": "operator",
          "type": "address"
        },
        {
          "indexed": true,
          "internalType": "address",
          "name": "from",
          "type": "address"
        },
        {
          "indexed": true,
          "internalType": "address",
          "name": "to",
          "type": "address"
        },
        {
          "indexed": false,
          "internalType": "uint256[]",
          "name": "ids",
          "type": "uint256[]"
        },
        {
          "indexed": false,
          "internalType": "uint256[]",
          "name": "values",
          "type": "uint256[]"
        }
      ],
      "name": "TransferBatch",
      "type": "event"
    },
    {
      "anonymous": false,
      "inputs": [
        {
          "indexed": true,
          "internalType": "address",
          "name": "sender",
          "type": "address"
        },
        {
          "indexed": false,
          "internalType": "address[]",
          "name": "recipients",
          "type": "address[]"
        },
        {
          "indexed": false,
          "internalType": "uint256",
          "name": "tokenId",
          "type": "uint256"
        },
        {
          "indexed": false,
          "internalType": "uint256",
          "name": "amount",
          "type": "uint256"
        }
      ],
      "name": "TransferMultiple",
      "type": "event"
    },
    {
      "anonymous": false,
      "inputs": [
        {
          "indexed": true,
          "internalType": "address",
          "name": "operator",
          "type": "address"
        },
        {
          "indexed": true,
          "internalType": "address",
          "name": "from",
          "type": "address"
        },
        {
          "indexed": true,
          "internalType": "address",
          "name": "to",
          "type": "address"
        },
        {
          "indexed": false,
          "internalType": "uint256",
          "name": "id",
          "type": "uint256"
        },
        {
          "indexed": false,
          "internalType": "uint256",
          "name": "value",
          "type": "uint256"
        }
      ],
      "name": "TransferSingle",
      "type": "event"
    },
    {
      "anonymous": false,
      "inputs": [
        {
          "indexed": false,
          "internalType": "string",
          "name": "value",
          "type": "string"
        },
        {
          "indexed": true,
          "internalType": "uint256",
          "name": "id",
          "type": "uint256"
        }
      ],
      "name": "URI",
      "type": "event"
    },
    {
      "inputs": [
        {
          "internalType": "address",
          "name": "account",
          "type": "address"
        },
        {
          "internalType": "uint256",
          "name": "tokenId",
          "type": "uint256"
        }
      ],
      "name": "approvalForToken",
      "outputs": [
        {
          "internalType": "bool",
          "name": "",
          "type": "bool"
        }
      ],
      "stateMutability": "view",
      "type": "function"
    },
    {
      "inputs": [
        {
          "internalType": "address",
          "name": "account",
          "type": "address"
        },
        {
          "internalType": "uint256",
          "name": "tokenId",
          "type": "uint256"
        }
      ],
      "name": "badgeBalance",
      "outputs": [
        {
          "internalType": "uint256",
          "name": "",
          "type": "uint256"
        }
      ],
      "stateMutability": "view",
      "type": "function"
    },
    {
      "inputs": [
        {
          "internalType": "uint256",
          "name": "tokenId",
          "type": "uint256"
        }
      ],
      "name": "badgeType",
      "outputs": [
        {
          "internalType": "enum ICleanMileBadge.BadgeType",
          "name": "",
          "type": "uint8"
        }
      ],
      "stateMutability": "view",
      "type": "function"
    },
    {
      "inputs": [
        {
          "internalType": "address",
          "name": "account",
          "type": "address"
        },
        {
          "internalType": "uint256",
          "name": "id",
          "type": "uint256"
        }
      ],
      "name": "balanceOf",
      "outputs": [
        {
          "internalType": "uint256",
          "name": "",
          "type": "uint256"
        }
      ],
      "stateMutability": "view",
      "type": "function"
    },
    {
      "inputs": [
        {
          "internalType": "address[]",
          "name": "accounts",
          "type": "address[]"
        },
        {
          "internalType": "uint256[]",
          "name": "ids",
          "type": "uint256[]"
        }
      ],
      "name": "balanceOfBatch",
      "outputs": [
        {
          "internalType": "uint256[]",
          "name": "",
          "type": "uint256[]"
        }
      ],
      "stateMutability": "view",
      "type": "function"
    },
    {
      "inputs": [
        {
          "internalType": "address",
          "name": "account",
          "type": "address"
        },
        {
          "internalType": "address",
          "name": "operator",
          "type": "address"
        }
      ],
      "name": "isApprovedForAll",
      "outputs": [
        {
          "internalType": "bool",
          "name": "",
          "type": "bool"
        }
      ],
      "stateMutability": "view",
      "type": "function"
    },
    {
      "inputs": [
        {
          "internalType": "address",
          "name": "account",
          "type": "address"
        },
        {
          "internalType": "enum ICleanMileBadge.BadgeType",
          "name": "_badgeType",
          "type": "uint8"
        },
        {
          "internalType": "uint256",
          "name": "amount",
          "type": "uint256"
        },
        {
          "internalType": "string",
          "name": "_uri",
          "type": "string"
        }
      ],
      "name": "mintBadge",
      "outputs": [
        {
          "internalType": "uint256",
          "name": "",
          "type": "uint256"
        }
      ],
      "stateMutability": "nonpayable",
      "type": "function"
    },
    {
      "inputs": [],
      "name": "owner",
      "outputs": [
        {
          "internalType": "address",
          "name": "",
          "type": "address"
        }
      ],
      "stateMutability": "view",
      "type": "function"
    },
    {
      "inputs": [],
      "name": "renounceOwnership",
      "outputs": [],
      "stateMutability": "nonpayable",
      "type": "function"
    },
    {
      "inputs": [
        {
          "internalType": "address",
          "name": "from",
          "type": "address"
        },
        {
          "internalType": "address",
          "name": "to",
          "type": "address"
        },
        {
          "internalType": "uint256[]",
          "name": "ids",
          "type": "uint256[]"
        },
        {
          "internalType": "uint256[]",
          "name": "amounts",
          "type": "uint256[]"
        },
        {
          "internalType": "bytes",
          "name": "data",
          "type": "bytes"
        }
      ],
      "name": "safeBatchTransferFrom",
      "outputs": [],
      "stateMutability": "nonpayable",
      "type": "function"
    },
    {
      "inputs": [
        {
          "internalType": "address",
          "name": "from",
          "type": "address"
        },
        {
          "internalType": "address",
          "name": "to",
          "type": "address"
        },
        {
          "internalType": "uint256",
          "name": "id",
          "type": "uint256"
        },
        {
          "internalType": "uint256",
          "name": "amount",
          "type": "uint256"
        },
        {
          "internalType": "bytes",
          "name": "data",
          "type": "bytes"
        }
      ],
      "name": "safeTransferFrom",
      "outputs": [],
      "stateMutability": "nonpayable",
      "type": "function"
    },
    {
      "inputs": [
        {
          "internalType": "address",
          "name": "operator",
          "type": "address"
        },
        {
          "internalType": "bool",
          "name": "approved",
          "type": "bool"
        }
      ],
      "name": "setApprovalForAll",
      "outputs": [],
      "stateMutability": "nonpayable",
      "type": "function"
    },
    {
      "inputs": [
        {
          "internalType": "address",
          "name": "account",
          "type": "address"
        },
        {
          "internalType": "uint256",
          "name": "tokenId",
          "type": "uint256"
        },
        {
          "internalType": "bool",
          "name": "approved",
          "type": "bool"
        }
      ],
      "name": "setApprovalForToken",
      "outputs": [],
      "stateMutability": "nonpayable",
      "type": "function"
    },
    {
      "inputs": [
        {
          "internalType": "bytes4",
          "name": "interfaceId",
          "type": "bytes4"
        }
      ],
      "name": "supportsInterface",
      "outputs": [
        {
          "internalType": "bool",
          "name": "",
          "type": "bool"
        }
      ],
      "stateMutability": "view",
      "type": "function"
    },
    {
      "inputs": [
        {
          "internalType": "address",
          "name": "from",
          "type": "address"
        },
        {
          "internalType": "address",
          "name": "to",
          "type": "address"
        },
        {
          "internalType": "uint256",
          "name": "tokenId",
          "type": "uint256"
        },
        {
          "internalType": "uint256",
          "name": "amount",
          "type": "uint256"
        }
      ],
      "name": "transferBadge",
      "outputs": [],
      "stateMutability": "nonpayable",
      "type": "function"
    },
    {
      "inputs": [
        {
          "internalType": "address",
          "name": "from",
          "type": "address"
        },
        {
          "internalType": "address[]",
          "name": "recipients",
          "type": "address[]"
        },
        {
          "internalType": "uint256",
          "name": "tokenId",
          "type": "uint256"
        },
        {
          "internalType": "uint256",
          "name": "amount",
          "type": "uint256"
        }
      ],
      "name": "transferBadges",
      "outputs": [],
      "stateMutability": "nonpayable",
      "type": "function"
    },
    {
      "inputs": [
        {
          "internalType": "address",
          "name": "newOwner",
          "type": "address"
        }
      ],
      "name": "transferOwnership",
      "outputs": [],
      "stateMutability": "nonpayable",
      "type": "function"
    },
    {
      "inputs": [
        {
          "internalType": "uint256",
          "name": "tokenId",
          "type": "uint256"
        }
      ],
      "name": "uri",
      "outputs": [
        {
          "internalType": "string",
          "name": "",
          "type": "string"
        }
      ],
      "stateMutability": "view",
      "type": "function"
    },
    {
      "inputs": [
        {
          "internalType": "address",
          "name": "_address",
          "type": "address"
        }
      ],
      "name": "userBadgeScore",
      "outputs": [
        {
          "internalType": "uint256",
          "name": "",
          "type": "uint256"
        }
      ],
      "stateMutability": "view",
      "type": "function"
    }
  ],
  "bytecode": "0x60e060405260016080908152600560a0819052600a60c05262000024916003620000d9565b503480156200003257600080fd5b5060408051808201909152600e81526d436c65616e4d696c65426164676560901b6020820152620000638162000075565b506200006f3362000087565b620002a9565b6002620000838282620001dd565b5050565b600380546001600160a01b038381166001600160a01b0319831681179093556040519116919082907f8be0079c531659141344cd1fd0a4f28419497f9722a3daafe3b4186f6b6457e090600090a35050565b82600381019282156200010f579160200282015b828111156200010f578251829060ff16905591602001919060010190620000ed565b506200011d92915062000121565b5090565b5b808211156200011d576000815560010162000122565b634e487b7160e01b600052604160045260246000fd5b600181811c908216806200016357607f821691505b6020821081036200018457634e487b7160e01b600052602260045260246000fd5b50919050565b601f821115620001d857600081815260208120601f850160051c81016020861015620001b35750805b601f850160051c820191505b81811015620001d457828155600101620001bf565b5050505b505050565b81516001600160401b03811115620001f957620001f962000138565b62000211816200020a84546200014e565b846200018a565b602080601f831160018114620002495760008415620002305750858301515b600019600386901b1c1916600185901b178555620001d4565b600085815260208120601f198616915b828110156200027a5788860151825594840194600190910190840162000259565b5085821015620002995787850151600019600388901b60f8161c191681555b5050505050600190811b01905550565b6120a180620002b96000396000f3fe608060405234801561001057600080fd5b50600436106101205760003560e01c8063715018a6116100ad578063c4e322e611610071578063c4e322e6146102aa578063e351d437146102d3578063e985e9c5146102e6578063f242432a146102f9578063f2fde38b1461030c57600080fd5b8063715018a61461022c5780638da5cb5b14610234578063a22cb4651461024f578063a5ed3bb314610262578063ae88d1981461029757600080fd5b80630e89341c116100f45780630e89341c146101965780632eb2c2d6146101b6578063471f9a09146101c95780634e1273f4146101f957806350c0183e1461021957600080fd5b8062fdd58e1461012557806301ffc9a71461014b57806302617fdd1461016e5780630866b0f414610183575b600080fd5b6101386101333660046114bd565b61031f565b6040519081526020015b60405180910390f35b61015e6101593660046114fd565b6103b8565b6040519015158152602001610142565b61018161017c36600461152a565b610408565b005b610181610191366004611566565b61047d565b6101a96101a43660046115a8565b61052d565b6040516101429190611607565b6101816101c4366004611770565b6105cf565b6101ec6101d73660046115a8565b6000908152600b602052604090205460ff1690565b6040516101429190611852565b61020c610207366004611860565b61061b565b6040516101429190611966565b61015e6102273660046114bd565b610745565b61018161076f565b6003546040516001600160a01b039091168152602001610142565b61018161025d366004611979565b610783565b6101386102703660046114bd565b60009081526009602090815260408083206001600160a01b03949094168352929052205490565b6101816102a53660046119ac565b6107bb565b6101386102b8366004611a41565b6001600160a01b03166000908152600c602052604090205490565b6101386102e1366004611a5c565b6108d4565b61015e6102f4366004611ade565b610977565b610181610307366004611b08565b6109d3565b61018161031a366004611a41565b610a18565b60006001600160a01b03831661038f5760405162461bcd60e51b815260206004820152602a60248201527f455243313135353a2061646472657373207a65726f206973206e6f742061207660448201526930b634b21037bbb732b960b11b60648201526084015b60405180910390fd5b506000818152602081815260408083206001600160a01b03861684529091529020545b92915050565b60006001600160e01b03198216636cdb3d1360e11b14806103e957506001600160e01b031982166303a24d0760e21b145b806103b257506301ffc9a760e01b6001600160e01b03198316146103b2565b610410610a91565b6000828152600a602090815260408083206001600160a01b03871680855290835292819020805460ff191685151590811790915590519081528492917f159f172ff9b4e83b758320619320c61dde4ba8a6f3d2769b45592b9ca0268dcd91015b60405180910390a3505050565b6001600160a01b038416331480159061049d575061049b8433610977565b155b80156104b057506104ae3383610745565b155b156104d05760405163c6d1e8ab60e01b8152336004820152602401610386565b6104dc84848484610aeb565b60408051838152602081018390526001600160a01b03808616929087169133917fc3d58168c5ae7397731d063d5bbf3d657854427343f4c083240f7aacaa2d0f62910160405180910390a450505050565b600081815260086020526040902080546060919061054a90611b6d565b80601f016020809104026020016040519081016040528092919081815260200182805461057690611b6d565b80156105c35780601f10610598576101008083540402835291602001916105c3565b820191906000526020600020905b8154815290600101906020018083116105a657829003601f168201915b50505050509050919050565b6001600160a01b0385163314806105eb57506105eb8533610977565b6106075760405162461bcd60e51b815260040161038690611ba7565b6106148585858585610c59565b5050505050565b606081518351146106805760405162461bcd60e51b815260206004820152602960248201527f455243313135353a206163636f756e747320616e6420696473206c656e677468604482015268040dad2e6dac2e8c6d60bb1b6064820152608401610386565b6000835167ffffffffffffffff81111561069c5761069c61161a565b6040519080825280602002602001820160405280156106c5578160200160208202803683370190505b50905060005b845181101561073d576107108582815181106106e9576106e9611bf5565b602002602001015185838151811061070357610703611bf5565b602002602001015161031f565b82828151811061072257610722611bf5565b602090810291909101015261073681611c21565b90506106cb565b509392505050565b6000908152600a602090815260408083206001600160a01b03949094168352929052205460ff1690565b610777610a91565b6107816000610e36565b565b336001600160a01b038316036107ac576040516332db50d960e01b815260040160405180910390fd5b6107b7338383610e88565b5050565b6001600160a01b03851633148015906107db57506107d98533610977565b155b80156107ee57506107ec3383610745565b155b1561080e5760405163c6d1e8ab60e01b8152336004820152602401610386565b6000839003610830576040516348e0555160e11b815260040160405180910390fd5b60005b8381101561088557600085858381811061084f5761084f611bf5565b90506020020160208101906108649190611a41565b905061087287828686610aeb565b508061087d81611c21565b915050610833565b50846001600160a01b03167f550651637850deef8ad1243b1632e8595e8ebe2e478e236d447f7f1896290da9858585856040516108c59493929190611c3a565b60405180910390a25050505050565b60006108de610a91565b600083116108ff57604051631f2a200560e01b815260040160405180910390fd5b600061090a60045490565b905061091a600480546001019055565b6109278686868685610f60565b336001600160a01b03167fb08db49899b6f2d585cc0c3db31e2fc7eee5eab9319ac0f267366aff5bfdcd71878787876040516109669493929190611c90565b60405180910390a295945050505050565b600061098b6003546001600160a01b031690565b6001600160a01b031633036109a2575060016103b2565b6001600160a01b0380841660009081526001602090815260408083209386168352929052205460ff165b9392505050565b6001600160a01b0385163314806109ef57506109ef8533610977565b610a0b5760405162461bcd60e51b815260040161038690611ba7565b6106148585858585611002565b610a20610a91565b6001600160a01b038116610a855760405162461bcd60e51b815260206004820152602660248201527f4f776e61626c653a206e6577206f776e657220697320746865207a65726f206160448201526564647265737360d01b6064820152608401610386565b610a8e81610e36565b50565b6003546001600160a01b031633146107815760405162461bcd60e51b815260206004820181905260248201527f4f776e61626c653a2063616c6c6572206973206e6f7420746865206f776e65726044820152606401610386565b6001600160a01b038316610b1d57604051630bc2c5df60e11b81526001600160a01b0384166004820152602401610386565b60008111610b3e57604051631f2a200560e01b815260040160405180910390fd5b60008281526009602090815260408083206001600160a01b03881684529091529020548110610b8057604051631e9acf1760e31b815260040160405180910390fd5b60008281526009602090815260408083206001600160a01b038816845290915281208054839290610bb2908490611ccf565b909155505060008281526009602090815260408083206001600160a01b038716845290915281208054839290610be9908490611ce2565b90915550506000828152600b602052604090205460059060ff166002811115610c1457610c1461181a565b60038110610c2457610c24611bf5565b01546001600160a01b0384166000908152600c602052604081208054909190610c4e908490611ce2565b909155505050505050565b8151835114610cbb5760405162461bcd60e51b815260206004820152602860248201527f455243313135353a2069647320616e6420616d6f756e7473206c656e677468206044820152670dad2e6dac2e8c6d60c31b6064820152608401610386565b6001600160a01b038416610ce15760405162461bcd60e51b815260040161038690611cf5565b3360005b8451811015610dc8576000858281518110610d0257610d02611bf5565b602002602001015190506000858381518110610d2057610d20611bf5565b602090810291909101810151600084815280835260408082206001600160a01b038e168352909352919091205490915081811015610d705760405162461bcd60e51b815260040161038690611d3a565b6000838152602081815260408083206001600160a01b038e8116855292528083208585039055908b16825281208054849290610dad908490611ce2565b9250508190555050505080610dc190611c21565b9050610ce5565b50846001600160a01b0316866001600160a01b0316826001600160a01b03167f4a39dc06d4c0dbc64b70af90fd698a233a518aa5d07e595d983b8c0526c8f7fb8787604051610e18929190611d84565b60405180910390a4610e2e81878787878761112c565b505050505050565b600380546001600160a01b038381166001600160a01b0319831681179093556040519116919082907f8be0079c531659141344cd1fd0a4f28419497f9722a3daafe3b4186f6b6457e090600090a35050565b816001600160a01b0316836001600160a01b031603610efb5760405162461bcd60e51b815260206004820152602960248201527f455243313135353a2073657474696e6720617070726f76616c20737461747573604482015268103337b91039b2b63360b91b6064820152608401610386565b6001600160a01b03838116600081815260016020908152604080832094871680845294825291829020805460ff191686151590811790915591519182527f17307eab39ab6107e8899845ad3d59bd9653f200f220920489ca2b5937696c319101610470565b610f7b85828560405180602001604052806000815250611290565b60008181526009602090815260408083206001600160a01b038916845290915281208054859290610fad908490611ce2565b90915550506000818152600860205260409020610fca8382611dfd565b506000818152600b60205260409020805485919060ff19166001836002811115610ff657610ff661181a565b02179055505050505050565b6001600160a01b0384166110285760405162461bcd60e51b815260040161038690611cf5565b3360006110348561139b565b905060006110418561139b565b90506000868152602081815260408083206001600160a01b038c168452909152902054858110156110845760405162461bcd60e51b815260040161038690611d3a565b6000878152602081815260408083206001600160a01b038d8116855292528083208985039055908a168252812080548892906110c1908490611ce2565b909155505060408051888152602081018890526001600160a01b03808b16928c821692918816917fc3d58168c5ae7397731d063d5bbf3d657854427343f4c083240f7aacaa2d0f62910160405180910390a4611121848a8a8a8a8a6113e6565b505050505050505050565b6001600160a01b0384163b15610e2e5760405163bc197c8160e01b81526001600160a01b0385169063bc197c81906111709089908990889088908890600401611ebd565b6020604051808303816000875af19250505080156111ab575060408051601f3d908101601f191682019092526111a891810190611f1b565b60015b611257576111b7611f38565b806308c379a0036111f057506111cb611f54565b806111d657506111f2565b8060405162461bcd60e51b81526004016103869190611607565b505b60405162461bcd60e51b815260206004820152603460248201527f455243313135353a207472616e7366657220746f206e6f6e2d455243313135356044820152732932b1b2b4bb32b91034b6b83632b6b2b73a32b960611b6064820152608401610386565b6001600160e01b0319811663bc197c8160e01b146112875760405162461bcd60e51b815260040161038690611fde565b50505050505050565b6001600160a01b0384166112f05760405162461bcd60e51b815260206004820152602160248201527f455243313135353a206d696e7420746f20746865207a65726f206164647265736044820152607360f81b6064820152608401610386565b3360006112fc8561139b565b905060006113098561139b565b90506000868152602081815260408083206001600160a01b038b1684529091528120805487929061133b908490611ce2565b909155505060408051878152602081018790526001600160a01b03808a1692600092918716917fc3d58168c5ae7397731d063d5bbf3d657854427343f4c083240f7aacaa2d0f62910160405180910390a4611287836000898989896113e6565b604080516001808252818301909252606091600091906020808301908036833701905050905082816000815181106113d5576113d5611bf5565b602090810291909101015292915050565b6001600160a01b0384163b15610e2e5760405163f23a6e6160e01b81526001600160a01b0385169063f23a6e619061142a9089908990889088908890600401612026565b6020604051808303816000875af1925050508015611465575060408051601f3d908101601f1916820190925261146291810190611f1b565b60015b611471576111b7611f38565b6001600160e01b0319811663f23a6e6160e01b146112875760405162461bcd60e51b815260040161038690611fde565b80356001600160a01b03811681146114b857600080fd5b919050565b600080604083850312156114d057600080fd5b6114d9836114a1565b946020939093013593505050565b6001600160e01b031981168114610a8e57600080fd5b60006020828403121561150f57600080fd5b81356109cc816114e7565b803580151581146114b857600080fd5b60008060006060848603121561153f57600080fd5b611548846114a1565b92506020840135915061155d6040850161151a565b90509250925092565b6000806000806080858703121561157c57600080fd5b611585856114a1565b9350611593602086016114a1565b93969395505050506040820135916060013590565b6000602082840312156115ba57600080fd5b5035919050565b6000815180845260005b818110156115e7576020818501810151868301820152016115cb565b506000602082860101526020601f19601f83011685010191505092915050565b6020815260006109cc60208301846115c1565b634e487b7160e01b600052604160045260246000fd5b601f8201601f1916810167ffffffffffffffff811182821017156116565761165661161a565b6040525050565b600067ffffffffffffffff8211156116775761167761161a565b5060051b60200190565b600082601f83011261169257600080fd5b8135602061169f8261165d565b6040516116ac8282611630565b83815260059390931b85018201928281019150868411156116cc57600080fd5b8286015b848110156116e757803583529183019183016116d0565b509695505050505050565b600067ffffffffffffffff83111561170c5761170c61161a565b604051611723601f8501601f191660200182611630565b80915083815284848401111561173857600080fd5b83836020830137600060208583010152509392505050565b600082601f83011261176157600080fd5b6109cc838335602085016116f2565b600080600080600060a0868803121561178857600080fd5b611791866114a1565b945061179f602087016114a1565b9350604086013567ffffffffffffffff808211156117bc57600080fd5b6117c889838a01611681565b945060608801359150808211156117de57600080fd5b6117ea89838a01611681565b9350608088013591508082111561180057600080fd5b5061180d88828901611750565b9150509295509295909350565b634e487b7160e01b600052602160045260246000fd5b6003811061184e57634e487b7160e01b600052602160045260246000fd5b9052565b602081016103b28284611830565b6000806040838503121561187357600080fd5b823567ffffffffffffffff8082111561188b57600080fd5b818501915085601f83011261189f57600080fd5b813560206118ac8261165d565b6040516118b98282611630565b83815260059390931b85018201928281019150898411156118d957600080fd5b948201945b838610156118fe576118ef866114a1565b825294820194908201906118de565b9650508601359250508082111561191457600080fd5b5061192185828601611681565b9150509250929050565b600081518084526020808501945080840160005b8381101561195b5781518752958201959082019060010161193f565b509495945050505050565b6020815260006109cc602083018461192b565b6000806040838503121561198c57600080fd5b611995836114a1565b91506119a36020840161151a565b90509250929050565b6000806000806000608086880312156119c457600080fd5b6119cd866114a1565b9450602086013567ffffffffffffffff808211156119ea57600080fd5b818801915088601f8301126119fe57600080fd5b813581811115611a0d57600080fd5b8960208260051b8501011115611a2257600080fd5b9699602092909201985095966040810135965060600135945092505050565b600060208284031215611a5357600080fd5b6109cc826114a1565b60008060008060808587031215611a7257600080fd5b611a7b856114a1565b9350602085013560038110611a8f57600080fd5b925060408501359150606085013567ffffffffffffffff811115611ab257600080fd5b8501601f81018713611ac357600080fd5b611ad2878235602084016116f2565b91505092959194509250565b60008060408385031215611af157600080fd5b611afa836114a1565b91506119a3602084016114a1565b600080600080600060a08688031215611b2057600080fd5b611b29866114a1565b9450611b37602087016114a1565b93506040860135925060608601359150608086013567ffffffffffffffff811115611b6157600080fd5b61180d88828901611750565b600181811c90821680611b8157607f821691505b602082108103611ba157634e487b7160e01b600052602260045260246000fd5b50919050565b6020808252602e908201527f455243313135353a2063616c6c6572206973206e6f7420746f6b656e206f776e60408201526d195c881bdc88185c1c1c9bdd995960921b606082015260800190565b634e487b7160e01b600052603260045260246000fd5b634e487b7160e01b600052601160045260246000fd5b600060018201611c3357611c33611c0b565b5060010190565b6060808252810184905260008560808301825b87811015611c7b576001600160a01b03611c66846114a1565b16825260209283019290910190600101611c4d565b50602084019590955250506040015292915050565b6001600160a01b0385168152611ca96020820185611830565b826040820152608060608201526000611cc560808301846115c1565b9695505050505050565b818103818111156103b2576103b2611c0b565b808201808211156103b2576103b2611c0b565b60208082526025908201527f455243313135353a207472616e7366657220746f20746865207a65726f206164604082015264647265737360d81b606082015260800190565b6020808252602a908201527f455243313135353a20696e73756666696369656e742062616c616e636520666f60408201526939103a3930b739b332b960b11b606082015260800190565b604081526000611d97604083018561192b565b8281036020840152611da9818561192b565b95945050505050565b601f821115611df857600081815260208120601f850160051c81016020861015611dd95750805b601f850160051c820191505b81811015610e2e57828155600101611de5565b505050565b815167ffffffffffffffff811115611e1757611e1761161a565b611e2b81611e258454611b6d565b84611db2565b602080601f831160018114611e605760008415611e485750858301515b600019600386901b1c1916600185901b178555610e2e565b600085815260208120601f198616915b82811015611e8f57888601518255948401946001909101908401611e70565b5085821015611ead5787850151600019600388901b60f8161c191681555b5050505050600190811b01905550565b6001600160a01b0386811682528516602082015260a060408201819052600090611ee99083018661192b565b8281036060840152611efb818661192b565b90508281036080840152611f0f81856115c1565b98975050505050505050565b600060208284031215611f2d57600080fd5b81516109cc816114e7565b600060033d1115611f515760046000803e5060005160e01c5b90565b600060443d1015611f625790565b6040516003193d81016004833e81513d67ffffffffffffffff8160248401118184111715611f9257505050505090565b8285019150815181811115611faa5750505050505090565b843d8701016020828501011115611fc45750505050505090565b611fd360208286010187611630565b509095945050505050565b60208082526028908201527f455243313135353a204552433131353552656365697665722072656a656374656040820152676420746f6b656e7360c01b606082015260800190565b6001600160a01b03868116825285166020820152604081018490526060810183905260a060808201819052600090612060908301846115c1565b97965050505050505056fea2646970667358221220d415d873a5535fbfde13a75bf922a5f1c7773d403b391e95498320b34ff04c7364736f6c63430008130033",
  "linkReferences": {},
  "deployedLinkReferences": {}
}