{
  "_format": "hh-sol-artifact-1",
  "contractName": "CleanMileDNFT",
  "sourceName": "contracts/CleanMileDNFT.sol",
  "abi": [
    {
      "inputs": [
        {
          "internalType": "string",
          "name": "name",
          "type": "string"
        },
        {
          "internalType": "string",
          "name": "symbol",
          "type": "string"
        }
      ],
      "stateMutability": "nonpayable",
      "type": "constructor"
    },
    {
      "inputs": [],
      "name": "BadgeNotSet",
      "type": "error"
    },
    {
      "inputs": [],
      "name": "InvalidUserType",
      "type": "error"
    },
    {
      "inputs": [
        {
          "internalType": "uint256",
          "name": "_tokenId",
          "type": "uint256"
        }
      ],
      "name": "MaxLevel",
      "type": "error"
    },
    {
      "inputs": [
        {
          "internalType": "uint256",
          "name": "_tokenId",
          "type": "uint256"
        }
      ],
      "name": "NonexistentToken",
      "type": "error"
    },
    {
      "inputs": [
        {
          "internalType": "uint256",
          "name": "_tokenId",
          "type": "uint256"
        },
        {
          "internalType": "address",
          "name": "sender",
          "type": "address"
        }
      ],
      "name": "NotOwner",
      "type": "error"
    },
    {
      "anonymous": false,
      "inputs": [
        {
          "indexed": true,
          "internalType": "address",
          "name": "owner",
          "type": "address"
        },
        {
          "indexed": true,
          "internalType": "address",
          "name": "approved",
          "type": "address"
        },
        {
          "indexed": true,
          "internalType": "uint256",
          "name": "tokenId",
          "type": "uint256"
        }
      ],
      "name": "Approval",
      "type": "event"
    },
    {
      "anonymous": false,
      "inputs": [
        {
          "indexed": true,
          "internalType": "address",
          "name": "owner",
          "type": "address"
        },
        {
          "indexed": true,
          "internalType": "address",
          "name": "operator",
          "type": "address"
        },
        {
          "indexed": false,
          "internalType": "bool",
          "name": "approved",
          "type": "bool"
        }
      ],
      "name": "ApprovalForAll",
      "type": "event"
    },
    {
      "anonymous": false,
      "inputs": [
        {
          "indexed": true,
          "internalType": "address",
          "name": "previousOwner",
          "type": "address"
        },
        {
          "indexed": true,
          "internalType": "address",
          "name": "newOwner",
          "type": "address"
        }
      ],
      "name": "OwnershipTransferred",
      "type": "event"
    },
    {
      "anonymous": false,
      "inputs": [
        {
          "indexed": true,
          "internalType": "address",
          "name": "from",
          "type": "address"
        },
        {
          "indexed": true,
          "internalType": "address",
          "name": "to",
          "type": "address"
        },
        {
          "indexed": true,
          "internalType": "uint256",
          "name": "tokenId",
          "type": "uint256"
        }
      ],
      "name": "Transfer",
      "type": "event"
    },
    {
      "anonymous": false,
      "inputs": [
        {
          "indexed": true,
          "internalType": "address",
          "name": "sender",
          "type": "address"
        },
        {
          "indexed": false,
          "internalType": "uint256",
          "name": "tokenId",
          "type": "uint256"
        }
      ],
      "name": "UpgradeDNFT",
      "type": "event"
    },
    {
      "inputs": [
        {
          "internalType": "address",
          "name": "to",
          "type": "address"
        },
        {
          "internalType": "uint256",
          "name": "tokenId",
          "type": "uint256"
        }
      ],
      "name": "approve",
      "outputs": [],
      "stateMutability": "nonpayable",
      "type": "function"
    },
    {
      "inputs": [
        {
          "internalType": "address",
          "name": "owner",
          "type": "address"
        }
      ],
      "name": "balanceOf",
      "outputs": [
        {
          "internalType": "uint256",
          "name": "",
          "type": "uint256"
        }
      ],
      "stateMutability": "view",
      "type": "function"
    },
    {
      "inputs": [
        {
          "internalType": "uint256",
          "name": "_tokenId",
          "type": "uint256"
        }
      ],
      "name": "dnftData",
      "outputs": [
        {
          "components": [
            {
              "internalType": "string",
              "name": "name",
              "type": "string"
            },
            {
              "internalType": "string",
              "name": "description",
              "type": "string"
            },
            {
              "internalType": "enum ICleanMileDNFT.DNFTLevel",
              "name": "level",
              "type": "uint8"
            }
          ],
          "internalType": "struct ICleanMileDNFT.DNFTData",
          "name": "",
          "type": "tuple"
        }
      ],
      "stateMutability": "view",
      "type": "function"
    },
    {
      "inputs": [
        {
          "internalType": "uint256",
          "name": "_tokenId",
          "type": "uint256"
        }
      ],
      "name": "dnftDescription",
      "outputs": [
        {
          "internalType": "string",
          "name": "",
          "type": "string"
        }
      ],
      "stateMutability": "view",
      "type": "function"
    },
    {
      "inputs": [
        {
          "internalType": "uint256",
          "name": "_tokenId",
          "type": "uint256"
        }
      ],
      "name": "dnftLevel",
      "outputs": [
        {
          "internalType": "enum ICleanMileDNFT.DNFTLevel",
          "name": "",
          "type": "uint8"
        }
      ],
      "stateMutability": "view",
      "type": "function"
    },
    {
      "inputs": [
        {
          "internalType": "uint256",
          "name": "_tokenId",
          "type": "uint256"
        }
      ],
      "name": "dnftName",
      "outputs": [
        {
          "internalType": "string",
          "name": "",
          "type": "string"
        }
      ],
      "stateMutability": "view",
      "type": "function"
    },
    {
      "inputs": [
        {
          "internalType": "uint256",
          "name": "tokenId",
          "type": "uint256"
        }
      ],
      "name": "getApproved",
      "outputs": [
        {
          "internalType": "address",
          "name": "",
          "type": "address"
        }
      ],
      "stateMutability": "view",
      "type": "function"
    },
    {
      "inputs": [
        {
          "internalType": "address",
          "name": "owner",
          "type": "address"
        },
        {
          "internalType": "address",
          "name": "operator",
          "type": "address"
        }
      ],
      "name": "isApprovedForAll",
      "outputs": [
        {
          "internalType": "bool",
          "name": "",
          "type": "bool"
        }
      ],
      "stateMutability": "view",
      "type": "function"
    },
    {
      "inputs": [
        {
          "internalType": "address",
          "name": "_to",
          "type": "address"
        },
        {
          "internalType": "string",
          "name": "_name",
          "type": "string"
        },
        {
          "internalType": "string",
          "name": "_description",
          "type": "string"
        },
        {
          "internalType": "enum ICleanMileDNFT.UserType",
          "name": "userType",
          "type": "uint8"
        }
      ],
      "name": "mintDNFT",
      "outputs": [],
      "stateMutability": "nonpayable",
      "type": "function"
    },
    {
      "inputs": [],
      "name": "name",
      "outputs": [
        {
          "internalType": "string",
          "name": "",
          "type": "string"
        }
      ],
      "stateMutability": "view",
      "type": "function"
    },
    {
      "inputs": [],
      "name": "owner",
      "outputs": [
        {
          "internalType": "address",
          "name": "",
          "type": "address"
        }
      ],
      "stateMutability": "view",
      "type": "function"
    },
    {
      "inputs": [
        {
          "internalType": "uint256",
          "name": "tokenId",
          "type": "uint256"
        }
      ],
      "name": "ownerOf",
      "outputs": [
        {
          "internalType": "address",
          "name": "",
          "type": "address"
        }
      ],
      "stateMutability": "view",
      "type": "function"
    },
    {
      "inputs": [],
      "name": "renounceOwnership",
      "outputs": [],
      "stateMutability": "nonpayable",
      "type": "function"
    },
    {
      "inputs": [
        {
          "internalType": "address",
          "name": "from",
          "type": "address"
        },
        {
          "internalType": "address",
          "name": "to",
          "type": "address"
        },
        {
          "internalType": "uint256",
          "name": "tokenId",
          "type": "uint256"
        }
      ],
      "name": "safeTransferFrom",
      "outputs": [],
      "stateMutability": "nonpayable",
      "type": "function"
    },
    {
      "inputs": [
        {
          "internalType": "address",
          "name": "from",
          "type": "address"
        },
        {
          "internalType": "address",
          "name": "to",
          "type": "address"
        },
        {
          "internalType": "uint256",
          "name": "tokenId",
          "type": "uint256"
        },
        {
          "internalType": "bytes",
          "name": "data",
          "type": "bytes"
        }
      ],
      "name": "safeTransferFrom",
      "outputs": [],
      "stateMutability": "nonpayable",
      "type": "function"
    },
    {
      "inputs": [
        {
          "internalType": "address",
          "name": "operator",
          "type": "address"
        },
        {
          "internalType": "bool",
          "name": "approved",
          "type": "bool"
        }
      ],
      "name": "setApprovalForAll",
      "outputs": [],
      "stateMutability": "nonpayable",
      "type": "function"
    },
    {
      "inputs": [
        {
          "internalType": "address",
          "name": "badgeAddress",
          "type": "address"
        }
      ],
      "name": "setBadge",
      "outputs": [
        {
          "internalType": "bool",
          "name": "",
          "type": "bool"
        }
      ],
      "stateMutability": "nonpayable",
      "type": "function"
    },
    {
      "inputs": [
        {
          "internalType": "bytes4",
          "name": "interfaceId",
          "type": "bytes4"
        }
      ],
      "name": "supportsInterface",
      "outputs": [
        {
          "internalType": "bool",
          "name": "",
          "type": "bool"
        }
      ],
      "stateMutability": "view",
      "type": "function"
    },
    {
      "inputs": [],
      "name": "symbol",
      "outputs": [
        {
          "internalType": "string",
          "name": "",
          "type": "string"
        }
      ],
      "stateMutability": "view",
      "type": "function"
    },
    {
      "inputs": [
        {
          "internalType": "uint256",
          "name": "_tokenId",
          "type": "uint256"
        }
      ],
      "name": "tokenURI",
      "outputs": [
        {
          "internalType": "string",
          "name": "",
          "type": "string"
        }
      ],
      "stateMutability": "view",
      "type": "function"
    },
    {
      "inputs": [
        {
          "internalType": "address",
          "name": "from",
          "type": "address"
        },
        {
          "internalType": "address",
          "name": "to",
          "type": "address"
        },
        {
          "internalType": "uint256",
          "name": "tokenId",
          "type": "uint256"
        }
      ],
      "name": "transferFrom",
      "outputs": [],
      "stateMutability": "nonpayable",
      "type": "function"
    },
    {
      "inputs": [
        {
          "internalType": "address",
          "name": "newOwner",
          "type": "address"
        }
      ],
      "name": "transferOwnership",
      "outputs": [],
      "stateMutability": "nonpayable",
      "type": "function"
    },
    {
      "inputs": [
        {
          "internalType": "uint256",
          "name": "_tokenId",
          "type": "uint256"
        },
        {
          "internalType": "string",
          "name": "_description",
          "type": "string"
        }
      ],
      "name": "updateDescription",
      "outputs": [],
      "stateMutability": "nonpayable",
      "type": "function"
    },
    {
      "inputs": [
        {
          "internalType": "uint256",
          "name": "_tokenId",
          "type": "uint256"
        },
        {
          "internalType": "string",
          "name": "_name",
          "type": "string"
        }
      ],
      "name": "updateName",
      "outputs": [],
      "stateMutability": "nonpayable",
      "type": "function"
    },
    {
      "inputs": [
        {
          "internalType": "uint256",
          "name": "_tokenId",
          "type": "uint256"
        }
      ],
      "name": "upgradeCheck",
      "outputs": [
        {
          "internalType": "enum ICleanMileDNFT.DNFTLevel",
          "name": "",
          "type": "uint8"
        }
      ],
      "stateMutability": "view",
      "type": "function"
    },
    {
      "inputs": [
        {
          "internalType": "uint256",
          "name": "_tokenId",
          "type": "uint256"
        }
      ],
      "name": "upgradeDNFT",
      "outputs": [
        {
          "internalType": "bool",
          "name": "",
          "type": "bool"
        }
      ],
      "stateMutability": "nonpayable",
      "type": "function"
    }
  ],
  "bytecode": "0x6101e060405260686101408181526080918291906200278d6101603981526020016040518060a0016040528060688152602001620027f56068913981526020016040518060a0016040528060688152602001620026bd6068913981526020016040518060a0016040528060688152602001620025ed6068913981526020016040518060a0016040528060688152602001620026556068913981526020016040518060a001604052806068815260200162002725606891399052620000c890600990600662000193565b50348015620000d657600080fd5b506040516200285d3803806200285d833981016040819052620000f99162000322565b818160006200010983826200041b565b5060016200011882826200041b565b505050620001356200012f6200013d60201b60201c565b62000141565b5050620004e7565b3390565b600680546001600160a01b038381166001600160a01b0319831681179093556040519116919082907f8be0079c531659141344cd1fd0a4f28419497f9722a3daafe3b4186f6b6457e090600090a35050565b8260068101928215620001d1579160200282015b82811115620001d15782518290620001c090826200041b565b5091602001919060010190620001a7565b50620001df929150620001e3565b5090565b80821115620001df576000620001fa828262000204565b50600101620001e3565b50805462000212906200038c565b6000825580601f1062000223575050565b601f01602090049060005260206000209081019062000243919062000246565b50565b5b80821115620001df576000815560010162000247565b634e487b7160e01b600052604160045260246000fd5b600082601f8301126200028557600080fd5b81516001600160401b0380821115620002a257620002a26200025d565b604051601f8301601f19908116603f01168101908282118183101715620002cd57620002cd6200025d565b81604052838152602092508683858801011115620002ea57600080fd5b600091505b838210156200030e5785820183015181830184015290820190620002ef565b600093810190920192909252949350505050565b600080604083850312156200033657600080fd5b82516001600160401b03808211156200034e57600080fd5b6200035c8683870162000273565b935060208501519150808211156200037357600080fd5b50620003828582860162000273565b9150509250929050565b600181811c90821680620003a157607f821691505b602082108103620003c257634e487b7160e01b600052602260045260246000fd5b50919050565b601f8211156200041657600081815260208120601f850160051c81016020861015620003f15750805b601f850160051c820191505b818110156200041257828155600101620003fd565b5050505b505050565b81516001600160401b038111156200043757620004376200025d565b6200044f816200044884546200038c565b84620003c8565b602080601f8311600181146200048757600084156200046e5750858301515b600019600386901b1c1916600185901b17855562000412565b600085815260208120601f198616915b82811015620004b85788860151825594840194600190910190840162000497565b5085821015620004d75787850151600019600388901b60f8161c191681555b5050505050600190811b01905550565b6120f680620004f76000396000f3fe608060405234801561001057600080fd5b506004361061018e5760003560e01c806370a08231116100de578063988bda0811610097578063c87b56dd11610071578063c87b56dd14610389578063e985e9c51461039c578063f2fde38b146103af578063ff967e2e146103c257600080fd5b8063988bda0814610350578063a22cb46514610363578063b88d4fde1461037657600080fd5b806370a08231146102db578063715018a6146102fc57806378c3b778146103045780638da5cb5b1461032457806395d89b411461033557806396d63b551461033d57600080fd5b806323b872dd1161014b57806353e76f2c1161012557806353e76f2c1461028f5780636352211e146102a25780636398b17e146102b557806368d0470d146102c857600080fd5b806323b872dd146102365780633ba142501461024957806342842e0e1461027c57600080fd5b806301ffc9a71461019357806306fdde03146101bb57806307dd8227146101d0578063081812fc146101e3578063095ea7b31461020e57806314dee4b314610223575b600080fd5b6101a66101a13660046118f3565b6103d5565b60405190151581526020015b60405180910390f35b6101c3610427565b6040516101b2919061195d565b6101c36101de366004611970565b6104b9565b6101f66101f1366004611970565b61055b565b6040516001600160a01b0390911681526020016101b2565b61022161021c3660046119a0565b610582565b005b610221610231366004611a13565b610598565b610221610244366004611a5f565b6105f9565b61026f610257366004611970565b6000908152600f602052604090206002015460ff1690565b6040516101b29190611ad3565b61022161028a366004611a5f565b610611565b61022161029d366004611a13565b610624565b6101f66102b0366004611970565b610677565b6101c36102c3366004611970565b6106d7565b6102216102d6366004611ae1565b6106f7565b6102ee6102e9366004611b78565b61083f565b6040519081526020016101b2565b6102216108c5565b610317610312366004611970565b6108d9565b6040516101b29190611b93565b6006546001600160a01b03166101f6565b6101c3610a6d565b61026f61034b366004611970565b610a7c565b6101a661035e366004611970565b610ad9565b610221610371366004611be9565b610d1c565b610221610384366004611c3b565b610d2e565b6101c3610397366004611970565b610d42565b6101a66103aa366004611d17565b610d5f565b6102216103bd366004611b78565b610d8d565b6101a66103d0366004611b78565b610e06565b60006001600160e01b031982166380ac58cd60e01b148061040657506001600160e01b03198216635b5e139f60e01b145b8061042157506301ffc9a760e01b6001600160e01b03198316145b92915050565b60606000805461043690611d4a565b80601f016020809104026020016040519081016040528092919081815260200182805461046290611d4a565b80156104af5780601f10610484576101008083540402835291602001916104af565b820191906000526020600020905b81548152906001019060200180831161049257829003601f168201915b5050505050905090565b6000818152600f602052604090208054606091906104d690611d4a565b80601f016020809104026020016040519081016040528092919081815260200182805461050290611d4a565b801561054f5780601f106105245761010080835404028352916020019161054f565b820191906000526020600020905b81548152906001019060200180831161053257829003601f168201915b50505050509050919050565b600061056682610e47565b506000908152600460205260409020546001600160a01b031690565b61058a610e97565b6105948282610ef1565b5050565b336105a284610677565b6001600160a01b0316146105d75760405163b9c0876160e01b8152600481018490523360248201526044015b60405180910390fd5b6000838152600f602052604090206001016105f3828483611dd2565b50505050565b610601610e97565b61060c838383611001565b505050565b610619610e97565b61060c838383611032565b3361062e84610677565b6001600160a01b03161461065e5760405163b9c0876160e01b8152600481018490523360248201526044016105ce565b6000838152600f602052604090206105f3828483611dd2565b6000818152600260205260408120546001600160a01b0316806104215760405162461bcd60e51b8152602060048201526018602482015277115490cdcc8c4e881a5b9d985b1a59081d1bdad95b88125160421b60448201526064016105ce565b6000818152600f602052604090206001018054606091906104d690611d4a565b6106ff610e97565b600181600181111561071357610713611a9b565b14806107305750600081600181111561072e5761072e611a9b565b145b61074d5760405163125619a960e31b815260040160405180910390fd5b6000600182600181111561076357610763611a9b565b0361077057506005610774565b5060005b6000600982600581111561078a5761078a611a9b565b6006811061079a5761079a611e93565b0180546107a690611d4a565b80601f01602080910402602001604051908101604052809291908181526020018280546107d290611d4a565b801561081f5780601f106107f45761010080835404028352916020019161081f565b820191906000526020600020905b81548152906001019060200180831161080257829003601f168201915b505050505090506108358888888888868861104d565b5050505050505050565b60006001600160a01b0382166108a95760405162461bcd60e51b815260206004820152602960248201527f4552433732313a2061646472657373207a65726f206973206e6f7420612076616044820152683634b21037bbb732b960b91b60648201526084016105ce565b506001600160a01b031660009081526003602052604090205490565b6108cd610e97565b6108d76000611178565b565b6108f9604080516060808201835280825260208201529081016000905290565b6000828152600f60205260409081902081516060810190925280548290829061092190611d4a565b80601f016020809104026020016040519081016040528092919081815260200182805461094d90611d4a565b801561099a5780601f1061096f5761010080835404028352916020019161099a565b820191906000526020600020905b81548152906001019060200180831161097d57829003601f168201915b505050505081526020016001820180546109b390611d4a565b80601f01602080910402602001604051908101604052809291908181526020018280546109df90611d4a565b8015610a2c5780601f10610a0157610100808354040283529160200191610a2c565b820191906000526020600020905b815481529060010190602001808311610a0f57829003601f168201915b5050509183525050600282015460209091019060ff166005811115610a5357610a53611a9b565b6005811115610a6457610a64611a9b565b90525092915050565b60606001805461043690611d4a565b6000610a87826111ca565b610aa757604051632f4163e760e01b8152600481018390526024016105ce565b6008546001600160a01b0316610ad057604051637b0972f160e01b815260040160405180910390fd5b610421826111e7565b6000610ae4826111ca565b610b0457604051632f4163e760e01b8152600481018390526024016105ce565b6000610b0f83610677565b9050336001600160a01b03821614610b435760405163b9c0876160e01b8152600481018490523360248201526044016105ce565b6000838152600f602052604090206002015460ff166004816005811115610b6c57610b6c611a9b565b1480610b8957506005816005811115610b8757610b87611a9b565b145b15610baa57604051631beddc1960e21b8152600481018590526024016105ce565b6000610bb5856111e7565b9050816005811115610bc957610bc9611a9b565b816005811115610bdb57610bdb611a9b565b1115610d115760006009826005811115610bf757610bf7611a9b565b60068110610c0757610c07611e93565b018054610c1390611d4a565b80601f0160208091040260200160405190810160405280929190818152602001828054610c3f90611d4a565b8015610c8c5780601f10610c6157610100808354040283529160200191610c8c565b820191906000526020600020905b815481529060010190602001808311610c6f57829003601f168201915b50505050509050610c9d86826112bf565b6000868152600f60205260409020600201805483919060ff19166001836005811115610ccb57610ccb611a9b565b021790555060405186815233907f829a25b2ca950497b6d658ed86cbc2884fbf8ff0ce0d1e79f88e348ea54ba8ad9060200160405180910390a250600195945050505050565b506000949350505050565b610d24610e97565b6105948282611300565b610d36610e97565b6105f38484848461130b565b60008181526010602052604090208054606091906104d690611d4a565b6001600160a01b03918216600090815260056020908152604080832093909416825291909152205460ff1690565b610d95610e97565b6001600160a01b038116610dfa5760405162461bcd60e51b815260206004820152602660248201527f4f776e61626c653a206e6577206f776e657220697320746865207a65726f206160448201526564647265737360d01b60648201526084016105ce565b610e0381611178565b50565b6000610e10610e97565b6001600160a01b038216610e2357600080fd5b50600880546001600160a01b0319166001600160a01b03831617905560015b919050565b610e50816111ca565b610e035760405162461bcd60e51b8152602060048201526018602482015277115490cdcc8c4e881a5b9d985b1a59081d1bdad95b88125160421b60448201526064016105ce565b6006546001600160a01b031633146108d75760405162461bcd60e51b815260206004820181905260248201527f4f776e61626c653a2063616c6c6572206973206e6f7420746865206f776e657260448201526064016105ce565b6000610efc82610677565b9050806001600160a01b0316836001600160a01b031603610f695760405162461bcd60e51b815260206004820152602160248201527f4552433732313a20617070726f76616c20746f2063757272656e74206f776e656044820152603960f91b60648201526084016105ce565b336001600160a01b0382161480610f855750610f858133610d5f565b610ff75760405162461bcd60e51b815260206004820152603d60248201527f4552433732313a20617070726f76652063616c6c6572206973206e6f7420746f60448201527f6b656e206f776e6572206f7220617070726f76656420666f7220616c6c00000060648201526084016105ce565b61060c838361133d565b61100b33826113ab565b6110275760405162461bcd60e51b81526004016105ce90611ea9565b61060c83838361140a565b61060c83838360405180602001604052806000815250610d2e565b600061105860075490565b9050611068600780546001019055565b611072888261156e565b61107c81846112bf565b604051806060016040528088888080601f016020809104026020016040519081016040528093929190818152602001838380828437600092019190915250505090825250604080516020601f89018190048102820181019092528781529181019190889088908190840183828082843760009201919091525050509082525060200183600581111561111057611110611a9b565b90526000828152600f602052604090208151819061112e9082611ef6565b50602082015160018201906111439082611ef6565b50604082015160028201805460ff1916600183600581111561116757611167611a9b565b021790555050505050505050505050565b600680546001600160a01b038381166001600160a01b0319831681179093556040519116919082907f8be0079c531659141344cd1fd0a4f28419497f9722a3daafe3b4186f6b6457e090600090a35050565b6000908152600260205260409020546001600160a01b0316151590565b6000806111f383610677565b600854604051636271917360e11b81526001600160a01b0380841660048301529293506000929091169063c4e322e690602401602060405180830381865afa158015611243573d6000803e3d6000fd5b505050506040513d601f19601f820116820180604052508101906112679190611fb6565b9050600f81101561127c575060009392505050565b602881101561128f575060019392505050565b604b8110156112a2575060029392505050565b60788110156112b5575060039392505050565b5060049392505050565b6112c8826111ca565b6112e857604051632f4163e760e01b8152600481018390526024016105ce565b600082815260106020526040902061060c8282611ef6565b6105943383836116db565b61131533836113ab565b6113315760405162461bcd60e51b81526004016105ce90611ea9565b6105f3848484846117a9565b600081815260046020526040902080546001600160a01b0319166001600160a01b038416908117909155819061137282610677565b6001600160a01b03167f8c5be1e5ebec7d5bd14f71427d1e84f3dd0314c0f7b2291e5b200ac8c7c3b92560405160405180910390a45050565b6000806113b783610677565b9050806001600160a01b0316846001600160a01b031614806113de57506113de8185610d5f565b806114025750836001600160a01b03166113f78461055b565b6001600160a01b0316145b949350505050565b826001600160a01b031661141d82610677565b6001600160a01b0316146114435760405162461bcd60e51b81526004016105ce90611fcf565b6001600160a01b0382166114a55760405162461bcd60e51b8152602060048201526024808201527f4552433732313a207472616e7366657220746f20746865207a65726f206164646044820152637265737360e01b60648201526084016105ce565b826001600160a01b03166114b882610677565b6001600160a01b0316146114de5760405162461bcd60e51b81526004016105ce90611fcf565b600081815260046020908152604080832080546001600160a01b03199081169091556001600160a01b0387811680865260038552838620805460001901905590871680865283862080546001019055868652600290945282852080549092168417909155905184937fddf252ad1be2c89b69c2b068fc378daa952ba7f163c4a11628f55a4df523b3ef91a4505050565b6001600160a01b0382166115c45760405162461bcd60e51b815260206004820181905260248201527f4552433732313a206d696e7420746f20746865207a65726f206164647265737360448201526064016105ce565b6115cd816111ca565b1561161a5760405162461bcd60e51b815260206004820152601c60248201527f4552433732313a20746f6b656e20616c7265616479206d696e7465640000000060448201526064016105ce565b611623816111ca565b156116705760405162461bcd60e51b815260206004820152601c60248201527f4552433732313a20746f6b656e20616c7265616479206d696e7465640000000060448201526064016105ce565b6001600160a01b038216600081815260036020908152604080832080546001019055848352600290915280822080546001600160a01b0319168417905551839291907fddf252ad1be2c89b69c2b068fc378daa952ba7f163c4a11628f55a4df523b3ef908290a45050565b816001600160a01b0316836001600160a01b03160361173c5760405162461bcd60e51b815260206004820152601960248201527f4552433732313a20617070726f766520746f2063616c6c65720000000000000060448201526064016105ce565b6001600160a01b03838116600081815260056020908152604080832094871680845294825291829020805460ff191686151590811790915591519182527f17307eab39ab6107e8899845ad3d59bd9653f200f220920489ca2b5937696c31910160405180910390a3505050565b6117b484848461140a565b6117c0848484846117dc565b6105f35760405162461bcd60e51b81526004016105ce90612014565b60006001600160a01b0384163b156118d257604051630a85bd0160e11b81526001600160a01b0385169063150b7a0290611820903390899088908890600401612066565b6020604051808303816000875af192505050801561185b575060408051601f3d908101601f19168201909252611858918101906120a3565b60015b6118b8573d808015611889576040519150601f19603f3d011682016040523d82523d6000602084013e61188e565b606091505b5080516000036118b05760405162461bcd60e51b81526004016105ce90612014565b805181602001fd5b6001600160e01b031916630a85bd0160e11b149050611402565b506001949350505050565b6001600160e01b031981168114610e0357600080fd5b60006020828403121561190557600080fd5b8135611910816118dd565b9392505050565b6000815180845260005b8181101561193d57602081850181015186830182015201611921565b506000602082860101526020601f19601f83011685010191505092915050565b6020815260006119106020830184611917565b60006020828403121561198257600080fd5b5035919050565b80356001600160a01b0381168114610e4257600080fd5b600080604083850312156119b357600080fd5b6119bc83611989565b946020939093013593505050565b60008083601f8401126119dc57600080fd5b50813567ffffffffffffffff8111156119f457600080fd5b602083019150836020828501011115611a0c57600080fd5b9250929050565b600080600060408486031215611a2857600080fd5b83359250602084013567ffffffffffffffff811115611a4657600080fd5b611a52868287016119ca565b9497909650939450505050565b600080600060608486031215611a7457600080fd5b611a7d84611989565b9250611a8b60208501611989565b9150604084013590509250925092565b634e487b7160e01b600052602160045260246000fd5b60068110611acf57634e487b7160e01b600052602160045260246000fd5b9052565b602081016104218284611ab1565b60008060008060008060808789031215611afa57600080fd5b611b0387611989565b9550602087013567ffffffffffffffff80821115611b2057600080fd5b611b2c8a838b016119ca565b90975095506040890135915080821115611b4557600080fd5b50611b5289828a016119ca565b909450925050606087013560028110611b6a57600080fd5b809150509295509295509295565b600060208284031215611b8a57600080fd5b61191082611989565b602081526000825160606020840152611baf6080840182611917565b90506020840151601f19848303016040850152611bcc8282611917565b9150506040840151611be16060850182611ab1565b509392505050565b60008060408385031215611bfc57600080fd5b611c0583611989565b915060208301358015158114611c1a57600080fd5b809150509250929050565b634e487b7160e01b600052604160045260246000fd5b60008060008060808587031215611c5157600080fd5b611c5a85611989565b9350611c6860208601611989565b925060408501359150606085013567ffffffffffffffff80821115611c8c57600080fd5b818701915087601f830112611ca057600080fd5b813581811115611cb257611cb2611c25565b604051601f8201601f19908116603f01168101908382118183101715611cda57611cda611c25565b816040528281528a6020848701011115611cf357600080fd5b82602086016020830137600060208483010152809550505050505092959194509250565b60008060408385031215611d2a57600080fd5b611d3383611989565b9150611d4160208401611989565b90509250929050565b600181811c90821680611d5e57607f821691505b602082108103611d7e57634e487b7160e01b600052602260045260246000fd5b50919050565b601f82111561060c57600081815260208120601f850160051c81016020861015611dab5750805b601f850160051c820191505b81811015611dca57828155600101611db7565b505050505050565b67ffffffffffffffff831115611dea57611dea611c25565b611dfe83611df88354611d4a565b83611d84565b6000601f841160018114611e325760008515611e1a5750838201355b600019600387901b1c1916600186901b178355611e8c565b600083815260209020601f19861690835b82811015611e635786850135825560209485019460019092019101611e43565b5086821015611e805760001960f88860031b161c19848701351681555b505060018560011b0183555b5050505050565b634e487b7160e01b600052603260045260246000fd5b6020808252602d908201527f4552433732313a2063616c6c6572206973206e6f7420746f6b656e206f776e6560408201526c1c881bdc88185c1c1c9bdd9959609a1b606082015260800190565b815167ffffffffffffffff811115611f1057611f10611c25565b611f2481611f1e8454611d4a565b84611d84565b602080601f831160018114611f595760008415611f415750858301515b600019600386901b1c1916600185901b178555611dca565b600085815260208120601f198616915b82811015611f8857888601518255948401946001909101908401611f69565b5085821015611fa65787850151600019600388901b60f8161c191681555b5050505050600190811b01905550565b600060208284031215611fc857600080fd5b5051919050565b60208082526025908201527f4552433732313a207472616e736665722066726f6d20696e636f72726563742060408201526437bbb732b960d91b606082015260800190565b60208082526032908201527f4552433732313a207472616e7366657220746f206e6f6e20455243373231526560408201527131b2b4bb32b91034b6b83632b6b2b73a32b960711b606082015260800190565b6001600160a01b038581168252841660208201526040810183905260806060820181905260009061209990830184611917565b9695505050505050565b6000602082840312156120b557600080fd5b8151611910816118dd56fea264697066735822122001cafbfa8025b36e4d70fc43a8db30410dd17761c16bb64f07e8bfdb9fdcc17564736f6c6343000813003368747470733a2f2f676f6c642d636f6f6c2d676f61742d3231332e6d7970696e6174612e636c6f75642f697066732f516d664662764c48333744656242716d56426d3756386563667a676a46506e506548525969596b31504e6f5738342f346c6576656c2e706e6768747470733a2f2f676f6c642d636f6f6c2d676f61742d3231332e6d7970696e6174612e636c6f75642f697066732f516d664662764c48333744656242716d56426d3756386563667a676a46506e506548525969596b31504e6f5738342f356c6576656c2e706e6768747470733a2f2f676f6c642d636f6f6c2d676f61742d3231332e6d7970696e6174612e636c6f75642f697066732f516d664662764c48333744656242716d56426d3756386563667a676a46506e506548525969596b31504e6f5738342f336c6576656c2e706e6768747470733a2f2f676f6c642d636f6f6c2d676f61742d3231332e6d7970696e6174612e636c6f75642f697066732f516d664662764c48333744656242716d56426d3756386563667a676a46506e506548525969596b31504e6f5738342f366c6576656c2e706e6768747470733a2f2f676f6c642d636f6f6c2d676f61742d3231332e6d7970696e6174612e636c6f75642f697066732f516d664662764c48333744656242716d56426d3756386563667a676a46506e506548525969596b31504e6f5738342f316c6576656c2e706e6768747470733a2f2f676f6c642d636f6f6c2d676f61742d3231332e6d7970696e6174612e636c6f75642f697066732f516d664662764c48333744656242716d56426d3756386563667a676a46506e506548525969596b31504e6f5738342f326c6576656c2e706e67",
  "linkReferences": {},
  "deployedLinkReferences": {}
}