{
  "_format": "hh-sol-artifact-1",
  "contractName": "CleanMileDNFT",
  "sourceName": "contracts/CleanMileDNFT.sol",
  "abi": [
    {
      "inputs": [
        {
          "internalType": "string",
          "name": "name",
          "type": "string"
        },
        {
          "internalType": "string",
          "name": "symbol",
          "type": "string"
        }
      ],
      "stateMutability": "nonpayable",
      "type": "constructor"
    },
    {
      "inputs": [],
      "name": "BadgeNotSet",
      "type": "error"
    },
    {
      "inputs": [],
      "name": "InvalidUserType",
      "type": "error"
    },
    {
      "inputs": [
        {
          "internalType": "uint256",
          "name": "_tokenId",
          "type": "uint256"
        }
      ],
      "name": "MaxLevel",
      "type": "error"
    },
    {
      "inputs": [
        {
          "internalType": "uint256",
          "name": "_tokenId",
          "type": "uint256"
        }
      ],
      "name": "NonexistentToken",
      "type": "error"
    },
    {
      "anonymous": false,
      "inputs": [
        {
          "indexed": true,
          "internalType": "address",
          "name": "owner",
          "type": "address"
        },
        {
          "indexed": true,
          "internalType": "address",
          "name": "approved",
          "type": "address"
        },
        {
          "indexed": true,
          "internalType": "uint256",
          "name": "tokenId",
          "type": "uint256"
        }
      ],
      "name": "Approval",
      "type": "event"
    },
    {
      "anonymous": false,
      "inputs": [
        {
          "indexed": true,
          "internalType": "address",
          "name": "owner",
          "type": "address"
        },
        {
          "indexed": true,
          "internalType": "address",
          "name": "operator",
          "type": "address"
        },
        {
          "indexed": false,
          "internalType": "bool",
          "name": "approved",
          "type": "bool"
        }
      ],
      "name": "ApprovalForAll",
      "type": "event"
    },
    {
      "anonymous": false,
      "inputs": [
        {
          "indexed": true,
          "internalType": "address",
          "name": "previousOwner",
          "type": "address"
        },
        {
          "indexed": true,
          "internalType": "address",
          "name": "newOwner",
          "type": "address"
        }
      ],
      "name": "OwnershipTransferred",
      "type": "event"
    },
    {
      "anonymous": false,
      "inputs": [
        {
          "indexed": true,
          "internalType": "address",
          "name": "from",
          "type": "address"
        },
        {
          "indexed": true,
          "internalType": "address",
          "name": "to",
          "type": "address"
        },
        {
          "indexed": true,
          "internalType": "uint256",
          "name": "tokenId",
          "type": "uint256"
        }
      ],
      "name": "Transfer",
      "type": "event"
    },
    {
      "anonymous": false,
      "inputs": [
        {
          "indexed": true,
          "internalType": "address",
          "name": "sender",
          "type": "address"
        },
        {
          "indexed": false,
          "internalType": "uint256",
          "name": "tokenId",
          "type": "uint256"
        }
      ],
      "name": "UpgradeDNFT",
      "type": "event"
    },
    {
      "inputs": [
        {
          "internalType": "address",
          "name": "to",
          "type": "address"
        },
        {
          "internalType": "uint256",
          "name": "tokenId",
          "type": "uint256"
        }
      ],
      "name": "approve",
      "outputs": [],
      "stateMutability": "nonpayable",
      "type": "function"
    },
    {
      "inputs": [
        {
          "internalType": "address",
          "name": "owner",
          "type": "address"
        }
      ],
      "name": "balanceOf",
      "outputs": [
        {
          "internalType": "uint256",
          "name": "",
          "type": "uint256"
        }
      ],
      "stateMutability": "view",
      "type": "function"
    },
    {
      "inputs": [
        {
          "internalType": "uint256",
          "name": "_tokenId",
          "type": "uint256"
        }
      ],
      "name": "dnftData",
      "outputs": [
        {
          "components": [
            {
              "internalType": "string",
              "name": "name",
              "type": "string"
            },
            {
              "internalType": "string",
              "name": "description",
              "type": "string"
            },
            {
              "internalType": "enum ICleanMileDNFT.DNFTLevel",
              "name": "level",
              "type": "uint8"
            }
          ],
          "internalType": "struct ICleanMileDNFT.DNFTData",
          "name": "",
          "type": "tuple"
        }
      ],
      "stateMutability": "view",
      "type": "function"
    },
    {
      "inputs": [
        {
          "internalType": "uint256",
          "name": "_tokenId",
          "type": "uint256"
        }
      ],
      "name": "dnftDescription",
      "outputs": [
        {
          "internalType": "string",
          "name": "",
          "type": "string"
        }
      ],
      "stateMutability": "view",
      "type": "function"
    },
    {
      "inputs": [
        {
          "internalType": "uint256",
          "name": "_tokenId",
          "type": "uint256"
        }
      ],
      "name": "dnftLevel",
      "outputs": [
        {
          "internalType": "enum ICleanMileDNFT.DNFTLevel",
          "name": "",
          "type": "uint8"
        }
      ],
      "stateMutability": "view",
      "type": "function"
    },
    {
      "inputs": [
        {
          "internalType": "uint256",
          "name": "_tokenId",
          "type": "uint256"
        }
      ],
      "name": "dnftName",
      "outputs": [
        {
          "internalType": "string",
          "name": "",
          "type": "string"
        }
      ],
      "stateMutability": "view",
      "type": "function"
    },
    {
      "inputs": [
        {
          "internalType": "uint256",
          "name": "tokenId",
          "type": "uint256"
        }
      ],
      "name": "getApproved",
      "outputs": [
        {
          "internalType": "address",
          "name": "",
          "type": "address"
        }
      ],
      "stateMutability": "view",
      "type": "function"
    },
    {
      "inputs": [
        {
          "internalType": "address",
          "name": "owner",
          "type": "address"
        },
        {
          "internalType": "address",
          "name": "operator",
          "type": "address"
        }
      ],
      "name": "isApprovedForAll",
      "outputs": [
        {
          "internalType": "bool",
          "name": "",
          "type": "bool"
        }
      ],
      "stateMutability": "view",
      "type": "function"
    },
    {
      "inputs": [
        {
          "internalType": "address",
          "name": "_to",
          "type": "address"
        },
        {
          "internalType": "string",
          "name": "_name",
          "type": "string"
        },
        {
          "internalType": "string",
          "name": "_description",
          "type": "string"
        },
        {
          "internalType": "enum ICleanMileDNFT.UserType",
          "name": "userType",
          "type": "uint8"
        }
      ],
      "name": "mintDNFT",
      "outputs": [],
      "stateMutability": "nonpayable",
      "type": "function"
    },
    {
      "inputs": [],
      "name": "name",
      "outputs": [
        {
          "internalType": "string",
          "name": "",
          "type": "string"
        }
      ],
      "stateMutability": "view",
      "type": "function"
    },
    {
      "inputs": [],
      "name": "owner",
      "outputs": [
        {
          "internalType": "address",
          "name": "",
          "type": "address"
        }
      ],
      "stateMutability": "view",
      "type": "function"
    },
    {
      "inputs": [
        {
          "internalType": "uint256",
          "name": "tokenId",
          "type": "uint256"
        }
      ],
      "name": "ownerOf",
      "outputs": [
        {
          "internalType": "address",
          "name": "",
          "type": "address"
        }
      ],
      "stateMutability": "view",
      "type": "function"
    },
    {
      "inputs": [],
      "name": "renounceOwnership",
      "outputs": [],
      "stateMutability": "nonpayable",
      "type": "function"
    },
    {
      "inputs": [
        {
          "internalType": "address",
          "name": "from",
          "type": "address"
        },
        {
          "internalType": "address",
          "name": "to",
          "type": "address"
        },
        {
          "internalType": "uint256",
          "name": "tokenId",
          "type": "uint256"
        }
      ],
      "name": "safeTransferFrom",
      "outputs": [],
      "stateMutability": "nonpayable",
      "type": "function"
    },
    {
      "inputs": [
        {
          "internalType": "address",
          "name": "from",
          "type": "address"
        },
        {
          "internalType": "address",
          "name": "to",
          "type": "address"
        },
        {
          "internalType": "uint256",
          "name": "tokenId",
          "type": "uint256"
        },
        {
          "internalType": "bytes",
          "name": "data",
          "type": "bytes"
        }
      ],
      "name": "safeTransferFrom",
      "outputs": [],
      "stateMutability": "nonpayable",
      "type": "function"
    },
    {
      "inputs": [
        {
          "internalType": "address",
          "name": "operator",
          "type": "address"
        },
        {
          "internalType": "bool",
          "name": "approved",
          "type": "bool"
        }
      ],
      "name": "setApprovalForAll",
      "outputs": [],
      "stateMutability": "nonpayable",
      "type": "function"
    },
    {
      "inputs": [
        {
          "internalType": "address",
          "name": "badgeAddress",
          "type": "address"
        }
      ],
      "name": "setBadge",
      "outputs": [
        {
          "internalType": "bool",
          "name": "",
          "type": "bool"
        }
      ],
      "stateMutability": "nonpayable",
      "type": "function"
    },
    {
      "inputs": [
        {
          "internalType": "bytes4",
          "name": "interfaceId",
          "type": "bytes4"
        }
      ],
      "name": "supportsInterface",
      "outputs": [
        {
          "internalType": "bool",
          "name": "",
          "type": "bool"
        }
      ],
      "stateMutability": "view",
      "type": "function"
    },
    {
      "inputs": [],
      "name": "symbol",
      "outputs": [
        {
          "internalType": "string",
          "name": "",
          "type": "string"
        }
      ],
      "stateMutability": "view",
      "type": "function"
    },
    {
      "inputs": [
        {
          "internalType": "uint256",
          "name": "_tokenId",
          "type": "uint256"
        }
      ],
      "name": "tokenURI",
      "outputs": [
        {
          "internalType": "string",
          "name": "",
          "type": "string"
        }
      ],
      "stateMutability": "view",
      "type": "function"
    },
    {
      "inputs": [
        {
          "internalType": "address",
          "name": "from",
          "type": "address"
        },
        {
          "internalType": "address",
          "name": "to",
          "type": "address"
        },
        {
          "internalType": "uint256",
          "name": "tokenId",
          "type": "uint256"
        }
      ],
      "name": "transferFrom",
      "outputs": [],
      "stateMutability": "nonpayable",
      "type": "function"
    },
    {
      "inputs": [
        {
          "internalType": "address",
          "name": "newOwner",
          "type": "address"
        }
      ],
      "name": "transferOwnership",
      "outputs": [],
      "stateMutability": "nonpayable",
      "type": "function"
    },
    {
      "inputs": [
        {
          "internalType": "uint256",
          "name": "_tokenId",
          "type": "uint256"
        },
        {
          "internalType": "string",
          "name": "_description",
          "type": "string"
        }
      ],
      "name": "updateDescription",
      "outputs": [],
      "stateMutability": "nonpayable",
      "type": "function"
    },
    {
      "inputs": [
        {
          "internalType": "uint256",
          "name": "_tokenId",
          "type": "uint256"
        },
        {
          "internalType": "string",
          "name": "_name",
          "type": "string"
        }
      ],
      "name": "updateName",
      "outputs": [],
      "stateMutability": "nonpayable",
      "type": "function"
    },
    {
      "inputs": [
        {
          "internalType": "uint256",
          "name": "_tokenId",
          "type": "uint256"
        }
      ],
      "name": "upgradeCheck",
      "outputs": [
        {
          "internalType": "enum ICleanMileDNFT.DNFTLevel",
          "name": "",
          "type": "uint8"
        }
      ],
      "stateMutability": "view",
      "type": "function"
    },
    {
      "inputs": [
        {
          "internalType": "uint256",
          "name": "_tokenId",
          "type": "uint256"
        }
      ],
      "name": "upgradeDNFT",
      "outputs": [
        {
          "internalType": "bool",
          "name": "",
          "type": "bool"
        }
      ],
      "stateMutability": "nonpayable",
      "type": "function"
    }
  ],
  "bytecode": "0x6101e06040526068610140818152608091829190620026f36101603981526020016040518060a00160405280606881526020016200275b6068913981526020016040518060a0016040528060688152602001620026236068913981526020016040518060a0016040528060688152602001620025536068913981526020016040518060a0016040528060688152602001620025bb6068913981526020016040518060a00160405280606881526020016200268b606891399052620000c890600990600662000193565b50348015620000d657600080fd5b50604051620027c3380380620027c3833981016040819052620000f99162000322565b818160006200010983826200041b565b5060016200011882826200041b565b505050620001356200012f6200013d60201b60201c565b62000141565b5050620004e7565b3390565b600680546001600160a01b038381166001600160a01b0319831681179093556040519116919082907f8be0079c531659141344cd1fd0a4f28419497f9722a3daafe3b4186f6b6457e090600090a35050565b8260068101928215620001d1579160200282015b82811115620001d15782518290620001c090826200041b565b5091602001919060010190620001a7565b50620001df929150620001e3565b5090565b80821115620001df576000620001fa828262000204565b50600101620001e3565b50805462000212906200038c565b6000825580601f1062000223575050565b601f01602090049060005260206000209081019062000243919062000246565b50565b5b80821115620001df576000815560010162000247565b634e487b7160e01b600052604160045260246000fd5b600082601f8301126200028557600080fd5b81516001600160401b0380821115620002a257620002a26200025d565b604051601f8301601f19908116603f01168101908282118183101715620002cd57620002cd6200025d565b81604052838152602092508683858801011115620002ea57600080fd5b600091505b838210156200030e5785820183015181830184015290820190620002ef565b600093810190920192909252949350505050565b600080604083850312156200033657600080fd5b82516001600160401b03808211156200034e57600080fd5b6200035c8683870162000273565b935060208501519150808211156200037357600080fd5b50620003828582860162000273565b9150509250929050565b600181811c90821680620003a157607f821691505b602082108103620003c257634e487b7160e01b600052602260045260246000fd5b50919050565b601f8211156200041657600081815260208120601f850160051c81016020861015620003f15750805b601f850160051c820191505b818110156200041257828155600101620003fd565b5050505b505050565b81516001600160401b038111156200043757620004376200025d565b6200044f816200044884546200038c565b84620003c8565b602080601f8311600181146200048757600084156200046e5750858301515b600019600386901b1c1916600185901b17855562000412565b600085815260208120601f198616915b82811015620004b85788860151825594840194600190910190840162000497565b5085821015620004d75787850151600019600388901b60f8161c191681555b5050505050600190811b01905550565b61205c80620004f76000396000f3fe608060405234801561001057600080fd5b506004361061018e5760003560e01c806370a08231116100de578063988bda0811610097578063c87b56dd11610071578063c87b56dd14610389578063e985e9c51461039c578063f2fde38b146103af578063ff967e2e146103c257600080fd5b8063988bda0814610350578063a22cb46514610363578063b88d4fde1461037657600080fd5b806370a08231146102db578063715018a6146102fc57806378c3b778146103045780638da5cb5b1461032457806395d89b411461033557806396d63b551461033d57600080fd5b806323b872dd1161014b57806353e76f2c1161012557806353e76f2c1461028f5780636352211e146102a25780636398b17e146102b557806368d0470d146102c857600080fd5b806323b872dd146102365780633ba142501461024957806342842e0e1461027c57600080fd5b806301ffc9a71461019357806306fdde03146101bb57806307dd8227146101d0578063081812fc146101e3578063095ea7b31461020e57806314dee4b314610223575b600080fd5b6101a66101a1366004611859565b6103d5565b60405190151581526020015b60405180910390f35b6101c3610427565b6040516101b291906118c3565b6101c36101de3660046118d6565b6104b9565b6101f66101f13660046118d6565b61055b565b6040516001600160a01b0390911681526020016101b2565b61022161021c366004611906565b610582565b005b610221610231366004611979565b610598565b6102216102443660046119c5565b6105c2565b61026f6102573660046118d6565b6000908152600f602052604090206002015460ff1690565b6040516101b29190611a39565b61022161028a3660046119c5565b6105da565b61022161029d366004611979565b6105ed565b6101f66102b03660046118d6565b61060e565b6101c36102c33660046118d6565b610673565b6102216102d6366004611a47565b610693565b6102ee6102e9366004611ade565b6107db565b6040519081526020016101b2565b610221610861565b6103176103123660046118d6565b610875565b6040516101b29190611af9565b6006546001600160a01b03166101f6565b6101c3610a09565b61026f61034b3660046118d6565b610a18565b6101a661035e3660046118d6565b610a75565b610221610371366004611b4f565b610c81565b610221610384366004611ba1565b610c93565b6101c36103973660046118d6565b610ca7565b6101a66103aa366004611c7d565b610cc4565b6102216103bd366004611ade565b610cf2565b6101a66103d0366004611ade565b610d6b565b60006001600160e01b031982166380ac58cd60e01b148061040657506001600160e01b03198216635b5e139f60e01b145b8061042157506301ffc9a760e01b6001600160e01b03198316145b92915050565b60606000805461043690611cb0565b80601f016020809104026020016040519081016040528092919081815260200182805461046290611cb0565b80156104af5780601f10610484576101008083540402835291602001916104af565b820191906000526020600020905b81548152906001019060200180831161049257829003601f168201915b5050505050905090565b6000818152600f602052604090208054606091906104d690611cb0565b80601f016020809104026020016040519081016040528092919081815260200182805461050290611cb0565b801561054f5780601f106105245761010080835404028352916020019161054f565b820191906000526020600020905b81548152906001019060200180831161053257829003601f168201915b50505050509050919050565b600061056682610dad565b506000908152600460205260409020546001600160a01b031690565b61058a610dfd565b6105948282610e57565b5050565b6105a0610dfd565b6000838152600f602052604090206001016105bc828483611d38565b50505050565b6105ca610dfd565b6105d5838383610f67565b505050565b6105e2610dfd565b6105d5838383610f98565b6105f5610dfd565b6000838152600f602052604090206105bc828483611d38565b6000818152600260205260408120546001600160a01b0316806104215760405162461bcd60e51b8152602060048201526018602482015277115490cdcc8c4e881a5b9d985b1a59081d1bdad95b88125160421b60448201526064015b60405180910390fd5b6000818152600f602052604090206001018054606091906104d690611cb0565b61069b610dfd565b60018160018111156106af576106af611a01565b14806106cc575060008160018111156106ca576106ca611a01565b145b6106e95760405163125619a960e31b815260040160405180910390fd5b600060018260018111156106ff576106ff611a01565b0361070c57506005610710565b5060005b6000600982600581111561072657610726611a01565b6006811061073657610736611df9565b01805461074290611cb0565b80601f016020809104026020016040519081016040528092919081815260200182805461076e90611cb0565b80156107bb5780601f10610790576101008083540402835291602001916107bb565b820191906000526020600020905b81548152906001019060200180831161079e57829003601f168201915b505050505090506107d188888888888688610fb3565b5050505050505050565b60006001600160a01b0382166108455760405162461bcd60e51b815260206004820152602960248201527f4552433732313a2061646472657373207a65726f206973206e6f7420612076616044820152683634b21037bbb732b960b91b606482015260840161066a565b506001600160a01b031660009081526003602052604090205490565b610869610dfd565b61087360006110de565b565b610895604080516060808201835280825260208201529081016000905290565b6000828152600f6020526040908190208151606081019092528054829082906108bd90611cb0565b80601f01602080910402602001604051908101604052809291908181526020018280546108e990611cb0565b80156109365780601f1061090b57610100808354040283529160200191610936565b820191906000526020600020905b81548152906001019060200180831161091957829003601f168201915b5050505050815260200160018201805461094f90611cb0565b80601f016020809104026020016040519081016040528092919081815260200182805461097b90611cb0565b80156109c85780601f1061099d576101008083540402835291602001916109c8565b820191906000526020600020905b8154815290600101906020018083116109ab57829003601f168201915b5050509183525050600282015460209091019060ff1660058111156109ef576109ef611a01565b6005811115610a0057610a00611a01565b90525092915050565b60606001805461043690611cb0565b6000610a2382611130565b610a4357604051632f4163e760e01b81526004810183905260240161066a565b6008546001600160a01b0316610a6c57604051637b0972f160e01b815260040160405180910390fd5b6104218261114d565b6000610a7f610dfd565b610a8882611130565b610aa857604051632f4163e760e01b81526004810183905260240161066a565b6000828152600f602052604090206002015460ff166004816005811115610ad157610ad1611a01565b1480610aee57506005816005811115610aec57610aec611a01565b145b15610b0f57604051631beddc1960e21b81526004810184905260240161066a565b6000610b1a8461114d565b9050816005811115610b2e57610b2e611a01565b816005811115610b4057610b40611a01565b1115610c755760006009826005811115610b5c57610b5c611a01565b60068110610b6c57610b6c611df9565b018054610b7890611cb0565b80601f0160208091040260200160405190810160405280929190818152602001828054610ba490611cb0565b8015610bf15780601f10610bc657610100808354040283529160200191610bf1565b820191906000526020600020905b815481529060010190602001808311610bd457829003601f168201915b50505050509050610c028582611225565b6000858152600f60205260409020600201805483919060ff19166001836005811115610c3057610c30611a01565b021790555060405185815233907f829a25b2ca950497b6d658ed86cbc2884fbf8ff0ce0d1e79f88e348ea54ba8ad9060200160405180910390a2506001949350505050565b6000925050505b919050565b610c89610dfd565b6105948282611266565b610c9b610dfd565b6105bc84848484611271565b60008181526010602052604090208054606091906104d690611cb0565b6001600160a01b03918216600090815260056020908152604080832093909416825291909152205460ff1690565b610cfa610dfd565b6001600160a01b038116610d5f5760405162461bcd60e51b815260206004820152602660248201527f4f776e61626c653a206e6577206f776e657220697320746865207a65726f206160448201526564647265737360d01b606482015260840161066a565b610d68816110de565b50565b6000610d75610dfd565b6001600160a01b038216610d8857600080fd5b50600880546001600160a01b0383166001600160a01b03199091161790556001919050565b610db681611130565b610d685760405162461bcd60e51b8152602060048201526018602482015277115490cdcc8c4e881a5b9d985b1a59081d1bdad95b88125160421b604482015260640161066a565b6006546001600160a01b031633146108735760405162461bcd60e51b815260206004820181905260248201527f4f776e61626c653a2063616c6c6572206973206e6f7420746865206f776e6572604482015260640161066a565b6000610e628261060e565b9050806001600160a01b0316836001600160a01b031603610ecf5760405162461bcd60e51b815260206004820152602160248201527f4552433732313a20617070726f76616c20746f2063757272656e74206f776e656044820152603960f91b606482015260840161066a565b336001600160a01b0382161480610eeb5750610eeb8133610cc4565b610f5d5760405162461bcd60e51b815260206004820152603d60248201527f4552433732313a20617070726f76652063616c6c6572206973206e6f7420746f60448201527f6b656e206f776e6572206f7220617070726f76656420666f7220616c6c000000606482015260840161066a565b6105d583836112a3565b610f713382611311565b610f8d5760405162461bcd60e51b815260040161066a90611e0f565b6105d5838383611370565b6105d583838360405180602001604052806000815250610c93565b6000610fbe60075490565b9050610fce600780546001019055565b610fd888826114d4565b610fe28184611225565b604051806060016040528088888080601f016020809104026020016040519081016040528093929190818152602001838380828437600092019190915250505090825250604080516020601f89018190048102820181019092528781529181019190889088908190840183828082843760009201919091525050509082525060200183600581111561107657611076611a01565b90526000828152600f60205260409020815181906110949082611e5c565b50602082015160018201906110a99082611e5c565b50604082015160028201805460ff191660018360058111156110cd576110cd611a01565b021790555050505050505050505050565b600680546001600160a01b038381166001600160a01b0319831681179093556040519116919082907f8be0079c531659141344cd1fd0a4f28419497f9722a3daafe3b4186f6b6457e090600090a35050565b6000908152600260205260409020546001600160a01b0316151590565b6000806111598361060e565b600854604051636271917360e11b81526001600160a01b0380841660048301529293506000929091169063c4e322e690602401602060405180830381865afa1580156111a9573d6000803e3d6000fd5b505050506040513d601f19601f820116820180604052508101906111cd9190611f1c565b9050600f8110156111e2575060009392505050565b60288110156111f5575060019392505050565b604b811015611208575060029392505050565b607881101561121b575060039392505050565b5060049392505050565b61122e82611130565b61124e57604051632f4163e760e01b81526004810183905260240161066a565b60008281526010602052604090206105d58282611e5c565b610594338383611641565b61127b3383611311565b6112975760405162461bcd60e51b815260040161066a90611e0f565b6105bc8484848461170f565b600081815260046020526040902080546001600160a01b0319166001600160a01b03841690811790915581906112d88261060e565b6001600160a01b03167f8c5be1e5ebec7d5bd14f71427d1e84f3dd0314c0f7b2291e5b200ac8c7c3b92560405160405180910390a45050565b60008061131d8361060e565b9050806001600160a01b0316846001600160a01b0316148061134457506113448185610cc4565b806113685750836001600160a01b031661135d8461055b565b6001600160a01b0316145b949350505050565b826001600160a01b03166113838261060e565b6001600160a01b0316146113a95760405162461bcd60e51b815260040161066a90611f35565b6001600160a01b03821661140b5760405162461bcd60e51b8152602060048201526024808201527f4552433732313a207472616e7366657220746f20746865207a65726f206164646044820152637265737360e01b606482015260840161066a565b826001600160a01b031661141e8261060e565b6001600160a01b0316146114445760405162461bcd60e51b815260040161066a90611f35565b600081815260046020908152604080832080546001600160a01b03199081169091556001600160a01b0387811680865260038552838620805460001901905590871680865283862080546001019055868652600290945282852080549092168417909155905184937fddf252ad1be2c89b69c2b068fc378daa952ba7f163c4a11628f55a4df523b3ef91a4505050565b6001600160a01b03821661152a5760405162461bcd60e51b815260206004820181905260248201527f4552433732313a206d696e7420746f20746865207a65726f2061646472657373604482015260640161066a565b61153381611130565b156115805760405162461bcd60e51b815260206004820152601c60248201527f4552433732313a20746f6b656e20616c7265616479206d696e74656400000000604482015260640161066a565b61158981611130565b156115d65760405162461bcd60e51b815260206004820152601c60248201527f4552433732313a20746f6b656e20616c7265616479206d696e74656400000000604482015260640161066a565b6001600160a01b038216600081815260036020908152604080832080546001019055848352600290915280822080546001600160a01b0319168417905551839291907fddf252ad1be2c89b69c2b068fc378daa952ba7f163c4a11628f55a4df523b3ef908290a45050565b816001600160a01b0316836001600160a01b0316036116a25760405162461bcd60e51b815260206004820152601960248201527f4552433732313a20617070726f766520746f2063616c6c657200000000000000604482015260640161066a565b6001600160a01b03838116600081815260056020908152604080832094871680845294825291829020805460ff191686151590811790915591519182527f17307eab39ab6107e8899845ad3d59bd9653f200f220920489ca2b5937696c31910160405180910390a3505050565b61171a848484611370565b61172684848484611742565b6105bc5760405162461bcd60e51b815260040161066a90611f7a565b60006001600160a01b0384163b1561183857604051630a85bd0160e11b81526001600160a01b0385169063150b7a0290611786903390899088908890600401611fcc565b6020604051808303816000875af19250505080156117c1575060408051601f3d908101601f191682019092526117be91810190612009565b60015b61181e573d8080156117ef576040519150601f19603f3d011682016040523d82523d6000602084013e6117f4565b606091505b5080516000036118165760405162461bcd60e51b815260040161066a90611f7a565b805181602001fd5b6001600160e01b031916630a85bd0160e11b149050611368565b506001949350505050565b6001600160e01b031981168114610d6857600080fd5b60006020828403121561186b57600080fd5b813561187681611843565b9392505050565b6000815180845260005b818110156118a357602081850181015186830182015201611887565b506000602082860101526020601f19601f83011685010191505092915050565b602081526000611876602083018461187d565b6000602082840312156118e857600080fd5b5035919050565b80356001600160a01b0381168114610c7c57600080fd5b6000806040838503121561191957600080fd5b611922836118ef565b946020939093013593505050565b60008083601f84011261194257600080fd5b50813567ffffffffffffffff81111561195a57600080fd5b60208301915083602082850101111561197257600080fd5b9250929050565b60008060006040848603121561198e57600080fd5b83359250602084013567ffffffffffffffff8111156119ac57600080fd5b6119b886828701611930565b9497909650939450505050565b6000806000606084860312156119da57600080fd5b6119e3846118ef565b92506119f1602085016118ef565b9150604084013590509250925092565b634e487b7160e01b600052602160045260246000fd5b60068110611a3557634e487b7160e01b600052602160045260246000fd5b9052565b602081016104218284611a17565b60008060008060008060808789031215611a6057600080fd5b611a69876118ef565b9550602087013567ffffffffffffffff80821115611a8657600080fd5b611a928a838b01611930565b90975095506040890135915080821115611aab57600080fd5b50611ab889828a01611930565b909450925050606087013560028110611ad057600080fd5b809150509295509295509295565b600060208284031215611af057600080fd5b611876826118ef565b602081526000825160606020840152611b15608084018261187d565b90506020840151601f19848303016040850152611b32828261187d565b9150506040840151611b476060850182611a17565b509392505050565b60008060408385031215611b6257600080fd5b611b6b836118ef565b915060208301358015158114611b8057600080fd5b809150509250929050565b634e487b7160e01b600052604160045260246000fd5b60008060008060808587031215611bb757600080fd5b611bc0856118ef565b9350611bce602086016118ef565b925060408501359150606085013567ffffffffffffffff80821115611bf257600080fd5b818701915087601f830112611c0657600080fd5b813581811115611c1857611c18611b8b565b604051601f8201601f19908116603f01168101908382118183101715611c4057611c40611b8b565b816040528281528a6020848701011115611c5957600080fd5b82602086016020830137600060208483010152809550505050505092959194509250565b60008060408385031215611c9057600080fd5b611c99836118ef565b9150611ca7602084016118ef565b90509250929050565b600181811c90821680611cc457607f821691505b602082108103611ce457634e487b7160e01b600052602260045260246000fd5b50919050565b601f8211156105d557600081815260208120601f850160051c81016020861015611d115750805b601f850160051c820191505b81811015611d3057828155600101611d1d565b505050505050565b67ffffffffffffffff831115611d5057611d50611b8b565b611d6483611d5e8354611cb0565b83611cea565b6000601f841160018114611d985760008515611d805750838201355b600019600387901b1c1916600186901b178355611df2565b600083815260209020601f19861690835b82811015611dc95786850135825560209485019460019092019101611da9565b5086821015611de65760001960f88860031b161c19848701351681555b505060018560011b0183555b5050505050565b634e487b7160e01b600052603260045260246000fd5b6020808252602d908201527f4552433732313a2063616c6c6572206973206e6f7420746f6b656e206f776e6560408201526c1c881bdc88185c1c1c9bdd9959609a1b606082015260800190565b815167ffffffffffffffff811115611e7657611e76611b8b565b611e8a81611e848454611cb0565b84611cea565b602080601f831160018114611ebf5760008415611ea75750858301515b600019600386901b1c1916600185901b178555611d30565b600085815260208120601f198616915b82811015611eee57888601518255948401946001909101908401611ecf565b5085821015611f0c5787850151600019600388901b60f8161c191681555b5050505050600190811b01905550565b600060208284031215611f2e57600080fd5b5051919050565b60208082526025908201527f4552433732313a207472616e736665722066726f6d20696e636f72726563742060408201526437bbb732b960d91b606082015260800190565b60208082526032908201527f4552433732313a207472616e7366657220746f206e6f6e20455243373231526560408201527131b2b4bb32b91034b6b83632b6b2b73a32b960711b606082015260800190565b6001600160a01b0385811682528416602082015260408101839052608060608201819052600090611fff9083018461187d565b9695505050505050565b60006020828403121561201b57600080fd5b81516118768161184356fea264697066735822122028fab9c901d9ea6720e43b2c788921f5f03c71bb4eaa5215a01041b0d8a182e664736f6c6343000813003368747470733a2f2f676f6c642d636f6f6c2d676f61742d3231332e6d7970696e6174612e636c6f75642f697066732f516d664662764c48333744656242716d56426d3756386563667a676a46506e506548525969596b31504e6f5738342f346c6576656c2e706e6768747470733a2f2f676f6c642d636f6f6c2d676f61742d3231332e6d7970696e6174612e636c6f75642f697066732f516d664662764c48333744656242716d56426d3756386563667a676a46506e506548525969596b31504e6f5738342f356c6576656c2e706e6768747470733a2f2f676f6c642d636f6f6c2d676f61742d3231332e6d7970696e6174612e636c6f75642f697066732f516d664662764c48333744656242716d56426d3756386563667a676a46506e506548525969596b31504e6f5738342f336c6576656c2e706e6768747470733a2f2f676f6c642d636f6f6c2d676f61742d3231332e6d7970696e6174612e636c6f75642f697066732f516d664662764c48333744656242716d56426d3756386563667a676a46506e506548525969596b31504e6f5738342f366c6576656c2e706e6768747470733a2f2f676f6c642d636f6f6c2d676f61742d3231332e6d7970696e6174612e636c6f75642f697066732f516d664662764c48333744656242716d56426d3756386563667a676a46506e506548525969596b31504e6f5738342f316c6576656c2e706e6768747470733a2f2f676f6c642d636f6f6c2d676f61742d3231332e6d7970696e6174612e636c6f75642f697066732f516d664662764c48333744656242716d56426d3756386563667a676a46506e506548525969596b31504e6f5738342f326c6576656c2e706e67",
  "linkReferences": {},
  "deployedLinkReferences": {}
}